:0A000000DCC007C111C1FCCFFBCF2B
:10000A00FACFF9CFF8CFF7CFF6CFF5CF22C1F3CF9A
:10001A003CC1F1CFF0CFEFCFEECFEDCF1027E80301
:10002A0064000A0001000010000110000100000035
:10003A000A000000000000000000434C4950004341
:10004A004D543A0063616E32006572726F722070AD
:10005A00617373776F7264004154480D0A006F6EC2
:10006A0031006F6E32006F666631006F666632006D
:10007A006F6E006F666600646F696D6B00737563FF
:10008A00636573733A007468656D31007364743123
:10009A003A007468656D32000A736474323A007407
:1000AA0068656D3300736474333A007265736574FE
:1000BA000070617373776F72643A0073796E74615A
:1000CA0078206572726F720070617373776F7264F1
:1000DA00206572726F720041540D0A004154453016
:1000EA000D0A0041542B434D47463D310D0A00414C
:1000FA00542B434E4D493D322C322C302C302C306F
:10010A000D0A0041542B435553443D310D0A004119
:10011A00542B434D4744413D44454C20414C4C0DE2
:10012A000A00415444003B0D0041542B434D4753B0
:10013A003D0041542B435553443D310D0A0041546F
:10014A00442A313031233B0D0A004154442A3130CC
:10015A00302A0000010002003800090005003A00B8
:10016A0005006001440005006501490004006A01B8
:10017A00680004006E016C00050072017000050041
:10018A007701750003007C017A0004007F017D007D
:10019A0006008301810006008901900006008F0194
:1001AA009C0006009501A90006009B01B50000000D
:1001BA00F894EE27ECBBF1E0FBBFEBBFE5BF8DE0A7
:1001CA00A2E0BB27ED938A95E9F780E094E0A0E6E8
:1001DA00ED930197E9F7EEE5F1E0859195910097A6
:1001EA0061F0A591B59105901590BF01F0010590B8
:1001FA000D920197E1F7FB01F0CFEFE5EDBFE4E0E7
:10020A00EEBFC0E6D1E059C39CD5A89B02C0A8980E
:10021A0001C0A89AA4D5A1D6E095A1D50AC091D5C6
:10022A00A99B02C0A99801C0A99A9CD596D6E09527
:10023A0099D59FD69AD5E991EFBFF991E991B991EC
:10024A00A9919991899179916991F9901990099057
:10025A0018958ED5A3D61BB10CB1E12FEC7191F490
:10026A00E82D8394F0E089D50083E1E04E2EEAEF91
:10027A00E81509F48824A394EAEFEA1519F4AA24E4
:10028A00689422F80991199113C072D579D5E03092
:10029A0079F076D5E150E093F603EC2DC394F0E0C3
:1002AA00E05AFC4FE081ECB9E6E9EC1509F4CC24FC
:1002BA00E991EFBFF991E9911895AA93A091F603F4
:1002CA00A639E1F3F8945CD5E03011F45D9910C0D9
:1002DA00ED2DD394F0E0E05AFC4FA881A083E6E923
:1002EA00ED1509F4DD244CD5EF5FE093F60302C067
:1002FA00E881ECB97894219608951A9310E01815BC
:10030A00E0F441D53AD5FF93EF933DD53FD5CF01E0
:10031A003AD5E055FE4FBF0136D5E554FE4F39D5E3
:10032A00A555BE4F3AD53CD5DB01EC93DC01EC93E5
:10033A00AF91BF91EC931F5FE2CF882444241991B7
:10034A00089528D650E02FD5F2F32DD50AF49AC095
:10035A0010E0143088F417D5EF55FE4FFF93EF9352
:10036A002AD5ABE2CFD42CD50ED52DD5AF91BF91DE
:10037A00EC935F5F1F5FEDCF5430F0F3F6D428D5CE
:10038A00A0E6B1E02AD529F5E1E07E2E14D5A2E255
:10039A00B9D42E2F25D5EF58FD4FA081A23211F4E2
:1003AA00EAE001C0EBE05E2E00E0051558F41BD52B
:1003BA00E055FE4F0F0114D503D515D504D5F0D459
:1003CA000F5FF3CF689420F8AAE010D520FCE3D0A1
:1003DA0058C0FED4A5E6B1E000D509F052C0EBD46E
:1003EA00A3E290D42E2FE2E07E2EE5D4AEE28AD4A8
:1003FA00DF01F6D4EA17FB0714F4203008F441C0F1
:10040A0000E0D9D4AEE27ED4DF01EAD4F1D4A02F41
:10041A00F3D454F4E8D4BAD40F01E2D4D1D4E3D457
:10042A00D2D4BED40F5FEDCF31E0C5D4ACE26AD4EA
:10043A00FF93EF93C0D4A2E265D4AF91BF91AE1BF4
:10044A00BF0BE4E0F0E0D4D4A32FD6D4B4F4E0E3B5
:10045A00E093BB01E32FF0E0E554FE4FFF93EF93E7
:10046A00AAD4A2E24FD43396DF01E32FF0E0ABD453
:10047A00AF91BF91EC933F5FD8CF689421F821FCEC
:10048A00A8D004C0EEE4F0E0BBD437DF8AD52696C4
:10049A000895BCD4A091C601EA1779F4BBD4A091FF
:1004AA00C701EA1751F4BAD4A091C801EA1729F48E
:1004BA00B9D4A091C901EA1709F003C0E1E06E2E90
:1004CA0006C06624E3E5F0E09BD4B0D416DF0895B5
:1004DA00A1971A9310E01B30F0F5A12FB0E0A050BD
:1004EA00B040A6D429F44FD4DE015796A4D408C04C
:1004FA004AD4DE015796A3D4A050B0402ED5D001DD
:10050A00EC93A12FB0E0A55FBF4F92D429F43BD45E
:10051A00DE011C9690D408C036D4DE011C968FD416
:10052A00A55FBF4F1AD5D001EC93A12FB0E0AA5E08
:10053A00BF4F7ED429F427D4DE0111967CD408C09B
:10054A0022D4DE0111967BD4AA5EBF4F06D5D00114
:10055A00EC931F5FC0CF1B30F0F3DE01579656D2E3
:10056A0004D420FE15C06ED4DE01599636D451F05B
:10057A0069D4DE011E9631D429F064D4DE011396C3
:10058A002CD419F4E1E09E2E03C099244FD4B5DE91
:10059A001881A29608959CDFE1E0E915C9F4DFD33A
:1005AA0056D419F4DFD353D409F005C0A898A998F2
:1005BA00D9D3E0E004C0A89AA99AD4D3E1E0D9D467
:1005CA00CED3D7D4E2E6F0E01BD444D420F8992461
:1005DA000895E297DFD42BE040D4A3D3EFAB3DD408
:1005EA0091D3EEABE6ECF1E03ED4AEE29AD34E2FD5
:1005FA0030E0E42FF0E03597A32FFED364F4A32F65
:10060A00B0E0A555BE4FE32FF0E0E553FE4FE08181
:10061A00EC933F5FEECF50E0AFA9BB27EEA9F0E025
:10062A003196E6D3A52FE8D37CF4E52FF0E0DE017E
:10063A0097961CD40F01EEA9F0E0C2D3E52FF0E0A3
:10064A0018D4AED35F5FE8CFEEA9EF5FAFA9AE1BB8
:10065A005A2F5F3038F4E52FF0E0DE0197960DD47B
:10066A005F5FF7CFDE019796D1D113DFE1E0E615A0
:10067A0009F01CC105D4AAE6B1E0AFD329F4A89ABF
:10068A006ED301D421F811C1FBD3AEE6B1E0A5D3F4
:10069A0029F4A99A67D3F7D321F807C1F1D3A2E7BE
:1006AA00B1E09BD329F4A8985AD3F0D321F8FDC01E
:1006BA00E7D3A7E7B1E091D329F4A99853D3E6D3B6
:1006CA0021F8F3C0DDD3ACE7B1E087D349F4A89AA7
:1006DA00A99A45D3E1E04DD445D3D5D321F8E5C055
:1006EA00CFD3AFE7B1E079D349F4A898A99837D323
:1006FA00E0E03FD437D3CAD321F8D7C0CAD3A3E89E
:10070A00B1E06BD3D9F410E0143050F43CD3EC5D73
:10071A00FF4FC2D338D3ADD3D0012BD41F5FF4CF50
:10072A00E7E8F0E06DD372D3BBD374D3B9D376D3F1
:10073A00B7D378D3B5D38ED321F8B7C0AAD3A9E853
:10074A00B1E04BD361F500E00B3000F5ABD3ADD38C
:10075A0018F0A081AA3350F046D3E050F0400F01C0
:10076A0042D3DE015C9689D3D0010DC03CD3E05060
:10077A00F040BF0138D3DE015C9678D38DD333D3F2
:10078A0078D30ED3DB01F5D30F5FDECF0B30F0F356
:10079A00E6E9F0E035D3DE015C9638D185C079D33D
:1007AA00AFE8B1E01AD379F500E00B3000F57AD35F
:1007BA007CD318F0A081AA3350F015D3E55FFF4F20
:1007CA000F0111D3DE01519658D3D0010DC00BD3BE
:1007DA00E55FFF4FBF0107D3DE01519647D35CD3D4
:1007EA0002D347D3DDD2DB01C4D30F5FDECF0B3098
:1007FA00F0F3A6ECB1E00AD1E2EAF0E001D3DE01BF
:10080A00519604D151C045D3A5E9B1E0E6D261F5CC
:10081A0000E00B3000F546D348D318F0A081AA3384
:10082A0050F0E1D2EA5EFF4F0F01DDD2DE011696EB
:10083A0024D3D0010DC0D7D2EA5EFF4FBF01D3D275
:10084A00DE01169613D328D3CED213D3A9D2DB0155
:10085A0090D30F5FDECF0B30F0F3EFEAF0E0D0D2A7
:10086A00DE011696D3D020C014D3ABE9B1E0B5D2DD
:10087A00C1F400E0043038F4A02FB0E0AC5DBF4F03
:10088A0019D30F5FF7CF0430F0F3EBEBF0E0B8D2F7
:10089A00BDD206D3BFD204D3C1D202D3C3D200D3AE
:1008AA0003C0E5ECF0E0ACD228DD04C0E2EDF0E0F4
:1008BA00A7D223DD76D3E8960895EFE0E7BBE0E020
:1008CA00E8BBE3E0E4BBE0E0E5BBE2E0E1BBECE08F
:1008DA00E2BBE0E0E3BFE2BFEFBDEEBDEDBDECBDC4
:1008EA00E7BDE6BDEBBDEABDE9BDE8BDE2BDE5BDDC
:1008FA00E4BDE3BDE9BFEBB7E06CEBBFEAE0E5BFFF
:10090A00E0ECEABFE3E0EBB9E8EDEAB9E6E8E0BD1E
:10091A00E0E0E0BDECE0E9B9E0E8E8B9E0E0E0BF3A
:10092A00E6B9EDB9E6BF789446D2AFE4EBD1FF233E
:10093A0082F4E1EEF0E064D2E6EEF0E061D2A8EEF5
:10094A00B3E0EAD238D2AFE4DDD1FF230AF4D5DC32
:10095A00EBCFEDEEF0E054D269D2E6EEF0E050D201
:10096A0065D2E9EFF0E04CD261D2EDE0F1E048D295
:10097A005DD2E9E1F1E044D259D2A3E2B0E058D223
:10098A0099F5A4E2B0E096D2A5E2B0E093D2A6E24D
:10099A00B0E090D2A7E2B0E08DD2A0E0B0E08AD277
:1009AA00A1E0B0E0E9E3E5D2A2E0B0E0E6E3E1D21B
:1009BA00A3E0B0E082D2A4E0B0E07FD2A5E0B0E04C
:1009CA007CD2A6E0B0E079D2A7E0B0E0E3E3D1D2EE
:1009DA00A8E0B0E0E7E3CDD2A9E0B0E0E3E3C9D212
:1009EA00A3E2B0E0E0E0C5D2BAD131D211F4A89ABC
:1009FA0001C0A898B7D12BD211F4A99A01C0A9981D
:100A0A007CDC442009F09DDCFCCFFFCF59D21A933D
:100A1A00A981BA81ED91A983BA831E2FE03019F01A
:100A2A00A12F4BDCF5CFAAE048DC18810AC048D2D6
:100A3A00AA8143DCA881B981ED91FD913196FE939B
:100A4A00EE93239608953CD22697A4D210E0AC8563
:100A5A00BD85E0E0F0E0ED93FC93EA89FB893196ED
:100A6A00EA8BFB8B3197E4912E2FE03009F4FCC01E
:100A7A00E12FE03031F4253211F411E001C023D224
:100A8A00F2C0E130A1F4253211F41DD2EBC012E01C
:100A9A0040E000E02D3211F401E0E5C02B3211F400
:100AAA004BE2E1C0203211F440E2DDC002C0E23084
:100ABA0039F450E013E0203311F40068D4C003C0C5
:100ACA00E33009F0D0C0203310F02A3308F007C011
:100ADA00AAE05A9F502DE22FE0535E0FC4C0E22FC6
:100AEA00E33639F4F7D1F9D1F5D1A481AA93F9D132
:100AFA00B9C0E33729F4FBD1FCD1EDD01E2F07C0D2
:100B0A00E03749F4F4D1F5D1F1D01E2F0860026024
:100B1A000F7730E02DC0E43611F0E93611F40460A5
:100B2A0002C0E53729F4E6E2F0E0ECD115E00BC0AB
:100B3A00E83511F4086003C0E83709F093C0E0E330
:100B4A00F0E0E0D114E002FF11C0D1D1DED1AB85D3
:100B5A00AA2332F4EA85FB85EDD1EA87FB874DE2C9
:100B6A00403011F01F5F01C00B7F02C0C0D1CDD150
:100B7A0000FD10C0151770F407FF08C002FF04C07B
:100B8A000B7F242F115001C020E301C020E29BD12A
:100B9A005150F0CF312F01FF15C0303091F003FFD3
:100BAA0005C0EE81FF812591ADD105C0AE81BF811F
:100BBA002D91AE83BF8387D1503009F05150315007
:100BCA00ECCF47C020E3EE81FF81BCD1E887F987EB
:100BDA00EE81FF81329696D1E885F985AA85BB8593
:100BEA00AE17BF0750F02F5FA885B985EA85FB8548
:100BFA00EA1BFB0BEA87FB87EFCF2A3328F003FFB8
:100C0A0002C0295F01C0295D04FD19C0213320F407
:100C1A00A885B985119709F409C0531710F000FF88
:100C2A0001C011C020E207FF0AC020E3006102FFF1
:100C3A0006C00B7F4A9355D1503009F0515043D129
:100C4A00503009F051503150A885B985129708F0F3
:100C5A00B9CF00FF07C0503029F05150E0E2EA93C3
:100C6A0040D1F9CF10E0F9CEAC85BD8567D199D1D5
:100C7A0064960895FF92F82E269790D1DE01149675
:100C8A0055D18D01E0E0EC83ED83EE83EF83DE0145
:100C9A0018964CD153D1E7D01A930A93ECE1F5E0B8
:100CAA00E2D0DE011896CFDE80D12896FF90089513
:100CBA0007D1E991F991A991B9916D91719167174C
:100CCA0021F46623D1F7EE270895671BE1F3E1E0EB
:100CDA0008F4E2500895F4D0A991B991EE27FF27BC
:100CEA006D91662311F03196FBCF0895E9D0AA27BA
:100CFA00BB27E991F9910590002011F01196FBCFDD
:100D0A00FD010895AA936991A991B991EE27FF2748
:100D1A007D91671729F031967723D1F7EFEFFFEF2F
:100D2A000895AA936991A991B991EFEFFFEF8827E6
:100D3A0099277D91671709F4FC0101967723C9F772
:100D4A0008950A921A92FA926A937A938A939A93D4
:100D5A00AA93BA93EA93FA93EFB7EA930895A1E2B2
:100D6A00B0E00895A2E2B0E00895A4E1B0E0D4C0F2
:100D7A00EA93FA93EFB7EA930895EA59FD4F089573
:100D8A00E091F6030895E12FF0E00895EA53FE4F4B
:100D9A0008950F01A12FB0E00895E0E0EC930895C3
:100DAA00D001EC930895E6E6F2E0FA93EA93ABE217
:100DBA00A9DFFF230895E6E6F2E0FA93EA9308959D
:100DCA003196DF010895EA0FFB1FD7DFE08108950E
:100DDA00E1EAF1E0FA93EA9308956ADFE0300895D0
:100DEA00E22FF0E00895E02FF0E00895B0E094C01B
:100DFA00ADD0EA1BFB0B0895B0E0AE17BF0708950C
:100E0A00FA93EA9380E036DF22960895A4E2B0E0EE
:100E1A00A4D00895A5E2B0E0A0D00895A6E2B0E07B
:100E2A009CD00895A7E2B0E098D00895A8ECDECF50
:100E3A0094D0EF3F0895AE0FBF1FE0E00895EA0F88
:100E4A00FB1FA7CFE0EBF1E0FA93EA93089585D070
:100E5A00E130089552DAE8940895E6ECF1E0FA9365
:100E6A00EA93A0E20895FA93EA930895EA0FFB1F22
:100E7A000895FCDF8BDFE0810895AE0FBF1F8DCF91
:100E8A00EBEAF1E0F0CFE1E074D0E4CFE0E071D03A
:100E9A00E1CFFE01B796E7CF0F01A22FBB27089536
:100EAA00AE2F0BCAA22FBB279ECFE0DF6FDFA08138
:100EBA00A0330895E0E35DD00895E4E35AD008959D
:100ECA00BA93AA9308952A93AD85BE85EF85F889CA
:100EDA0009950895E889F98908953497E88BF98B7B
:100EEA000895AD85BE85EF85F88909950895F2DFE5
:100EFA00F4CFA889B989149621D0EE83FF83AE81F5
:100F0A00BF810895EE83FF830895A889B98914964D
:100F1A0015D0EA87FB870895109639F08AEF90E09A
:100F2A000197F1F7A8951197C9F708950024AF0D15
:100F3A00B01D0895F195E195F0400895ED91FC9169
:100F4A00119708950590F491E02D08951B2EBF2F57
:100F5A00F12D1A2EAE2FE12D0895E199FECFFF93C0
:100F6A00FFB7F894AEBBBFBBE09AEDB3FFBFFF91EA
:100F7A000895E19B02C0A895FCCF9FB7F894AEBB39
:100F8A00BFBBE09A8DB3E81719F0EDBBE29AE19A7C
:100F9A009FBF08955A934A933A932A931A930A93AE
:100FAA0008955D814C813B812A81198108810895C8
:00000001FF
