:0A00000042C16DC177C1FCCFFBCFF8
:10000A00FACFF9CFF8CFF7CFF6CFF5CF89C1F3CF33
:10001A00A3C1F1CFF0CFEFCFEECFEDCF1027E8039A
:10002A0064000A0001000010000110000100000035
:10003A000A000000000000000000434C4950004341
:10004A004D543A0043555344002E0074696D65209F
:10005A006F7574004154480D0A006F6666006F6E32
:10006A0000746169203120766120322064616E67F4
:10007A0020626174007461692031206261742C20ED
:10008A0074616920322074617400746169203120BE
:10009A007461742C20746169203220626174007466
:1000AA006169203120766120322064616E67207494
:1000BA006174007265736574207375636365737325
:1000CA000070617373776F7264206572726F720069
:1000DA006F6E31006F6E32006F666631006F666652
:1000EA003200646F696D6B00737563636573733A8D
:1000FA00007364743100736474313A007364743247
:10010A00000A736474323A0073647433007364745B
:10011A00333A006B74746B006E61707469656E00BB
:10012A0074686F6E6762616F206F6E00646120622F
:10013A0061742074686F6E672062616F0074686F03
:10014A006E6762616F206F66660064612074617415
:10015A002074686F6E672062616F006B747474003C
:10016A0053796E746178206572726F720041540D12
:10017A000A00415445300D0A0041542B434D47466D
:10018A003D310D0A0041542B434E4D493D322C322C
:10019A002C302C302C300D0A0041542B435553443B
:1001AA003D310D0A0041542B434D4744413D4445DE
:1001BA004C20414C4C0D0A00415444003B0D004177
:1001CA00542B434D47533D0041542B435553443D13
:1001DA00310D0A004154442A313031233B0D0A00C3
:1001EA004154442A3130302A00000100020038000C
:1001FA00090005003A000500600144000500650198
:10020A00490005006A014E0005006F01440005001F
:10021A007401490005007901490005007E014E007C
:10022A0004008301DA0004008701DE0005008B0167
:10023A00E20005009001E700030095016800040050
:10024A009801640006009C01EC000500A201FB0075
:10025A000500A70106010500AC0112010500B10164
:10026A001D010800B60122010C00BE012A010D0081
:10027A00CA0147010500D70165010000F894EE277D
:10028A00ECBBF1E0FBBFEBBFE5BF8DE0A2E0BB2713
:10029A00ED938A95E9F780E094E0A0E6ED93019763
:1002AA00E9F7E4EFF1E085919591009761F0A59166
:1002BA00B59105901590BF01F00105900D92019737
:1002CA00E1F7FB01F0CFEFE5EDBFE4E0EEBFC0E6FA
:1002DA00D1E030C462D6A89B02C0A89801C0A89AEF
:1002EA006AD68FD7E09567D60AC057D6A99B02C0AF
:1002FA00A99801C0A99A62D684D7E0955FD68DD70E
:10030A00A4E15FD6E991EFBFF991E991B991A99179
:10031A009991899179916991F99019900990189513
:10032A0052D694D71BB10CB1E12FEC7191F4E82DA0
:10033A008394F0E04DD60083E1E04E2EEAEFE81513
:10034A0009F48824A394EAEFEA1519F4AA24689414
:10035A0022F80991199113C036D63DD6E03079F0CA
:10036A003AD6E150E093EF03EC2DC394F0E0E75A5C
:10037A00FC4FE081ECB9E6E9EC1509F4CC24E991EB
:10038A00EFBFF991E9911895AA93A091EF03A639C5
:10039A00E1F3F89420D6E03011F45D9910C0ED2D08
:1003AA00D394F0E0E75AFC4FA881A083E6E9ED1563
:1003BA0009F4DD2410D6EF5FE093EF0302C0E88171
:1003CA00ECB97894219608951A9310E0181520F53F
:1003DA0005D6FED5FF93EF9301D603D6FF93EF938D
:1003EA00FDD5EB51FE4FCF01F9D5E051FE4FBF01CC
:1003FA00F5D5E452FE4FF8D5AF51BE4FF9D5FBD52E
:10040A00DB01EC93DC01EC93AF91BF91EC93AF91DC
:10041A00BF91EC931F5FDACF882466249924442481
:10042A0082C110D750E040E0E9D5A0E6B1E0EBD5B3
:10043A0051F0E4D5A5E6B1E0E6D529F0DFD5AAE684
:10044A00B1E0E1D509F41AC010E0143080F4C6D541
:10045A00EF51FE4FFF93EF93D9D5ABE27FD5DBD5B2
:10046A00BDD5DCD5AF91BF91EC931F5FEECF5F5F37
:10047A00DAD5553110F0E0D501C0D6CFBFD5AFE6F9
:10048A00B1E0C1D511F5E1E07E2EC0D5DDD52E2F24
:10049A00DDD5E659FD4FA081A23211F4EAE001C090
:1004AA00EBE05E2E00E0051558F4D3D5EB51FE4F74
:1004BA000F01CCD5B0D5CDD5B1D59DD50F5FF3CF32
:1004CA00689420F820FC01D181C098D5A4E7B1E056
:1004DA009AD509F058C0E2E07E2E98D5AEE23ED514
:1004EA00ADD63CF04F5F9FD5453110F0A5D501C080
:1004FA00F4CF84D5A9E7B1E086D509F043C086D503
:10050A00A3E22CD52E2F2130E8F100E07FD5AEE210
:10051A0025D5DF019BD5A0D5A3D554F49AD561D5AD
:10052A000F0194D578D595D579D565D50F5FEECFDE
:10053A0031E06CD5ACE212D5FF93EF9367D584D541
:10054A00AF91BF91AE1BBF0BE4E0F0E085D58DD52E
:10055A00ACF4E0E3E093F001E32FF0E0E051FE4F6A
:10056A00FF93EF9353D570D53396DF01E32FF0E075
:10057A0055D5AF91BF91EC933F5FDBCF689421F8DB
:10058A0021FCEBD023C03AD5AEE7B1E03CD5F1F47B
:10059A003DD55AD52E2F00E039D5A2E2EED4DF019F
:1005AA0055D5AE1BBF0BE1E0F0E056D559D554F452
:1005BA0050D517D50F014AD52ED54BD52FD51BD5DA
:1005CA000F5FEACFABEFB1E029D3FEDE42D6269623
:1005DA000895A5E2B0E015D6A091FB01EA17A9F4A7
:1005EA00A6E2B0E00ED6A091FC01EA1771F4A7E2E8
:1005FA00B0E007D6A091FD01EA1739F4A8E2B0E00D
:10060A0000D6A091FE01EA1709F003C0E1E06E2EC0
:10061A0001C066240895A1971A9310E01B30C8F50B
:10062A0029D5A050B04029D529F4D8D4DE0157964F
:10063A0027D508C0D3D4DE01579626D5A050B0409E
:10064A00E0D5D001EC9316D5A55FBF4F16D529F496
:10065A00C5D4DE011C9614D508C0C0D4DE011C9690
:10066A0013D5A55FBF4FCDD5D001EC9303D5AA5EB4
:10067A00BF4F03D521F4B2D40AD502D507C0AED4F0
:10068A0006D502D5AA5EBF4FBCD5D001EC931F5F39
:10069A00C5CF1B30F0F3A4E194D420FE13C0FAD4E2
:1006AA00DE015996B0D451F0F5D4DE011E96ABD4D2
:1006BA0029F0F0D4DE011396A6D419F4E1E09E2EB7
:1006CA0001C099241881A29608951A9310E0A3DF15
:1006DA00992069F41F5FA7D4153140F0E5E5F0E0F1
:1006EA00DED4EEE5F0E0DBD4E0D401C0F1CFE1E006
:1006FA00E915C9F4DFD411F4E1D409F007C0A898C8
:10070A00E1D459D48AD5E4E6F0E006C0A89ADFD449
:10071A0052D483D5E8E6F0E0FA93EA93DDD4EEE525
:10072A00F0E0BDD4C2D419910895C4D459F4C6D402
:10073A0019F4EBE6F0E002C0EFE7F0E0FA93EA938F
:10074A00CBD40AC0BBD419F4E4E9F0E002C0E9EA68
:10075A00F0E0FA93EA93C0D40895E397E0E0E8ABB7
:10076A0071D540E02BE0BCD408D4E8AFB9D4F6D3B5
:10077A00EFABEBEFF1E0BAD4AEE2FFD34E2F30E0AD
:10078A00E42FF0E0359771D464F4A32FB0E0A452BB
:10079A00BE4FE32FF0E0E050FE4FE081EC933F5F65
:1007AA00EFCF50E0A8ADBB27EFA9F0E0319654D4C3
:1007BA00A52FB0E0AE17BF077CF4E52FF0E0DE010D
:1007CA00979697D40F01EFA9F0E025D4E52FF0E032
:1007DA0093D411D45F5FE6CFEFA9EF5FA8ADAE1B4C
:1007EA005A2F5F3038F4E52FF0E0DE01979688D46F
:1007FA005F5FF7CFA091FB01A33661F4A091FC01E2
:10080A00A43741F4A091FD01A13621F4A091FE0183
:10081A00A73409F014C02197E0E0E883A881A43046
:10082A0040F4B0E0AB5DBF4F6ED4E881EF5FE88380
:10083A00F5CFEDEBF0E033D4C7DD68D42196C9DEFD
:10084A00662089F4C6DEEEA9EF5FEEABA2E3B9D368
:10085A00AEA9A93238F0EBECF0E021D4B5DD66247C
:10086A0055D401C0EDCFE1E0E61509F060C151D4DD
:10087A00A3E8B1E0C8D349F4A89A9DD34DD44FD484
:10088A0019F0EAEDF0E00BD450C143D4A7E8B1E087
:10089A00BAD339F41CD443D419F0EEEDF0E0FFD307
:1008AA0044C137D4ABE8B1E0AED349F4A89883D3B6
:1008BA003BD435D419F0E2EEF0E0F1D336C129D4B5
:1008CA00A0E9B1E0A0D339F4FDD329D419F0E7EEB9
:1008DA00F0E0E5D32AC11DD4A5E9B1E094D361F4CF
:1008EA00A89AA99A68D318D469D316D418D419F037
:1008FA00E8E6F0E0D4D319C10CD4A8E9B1E083D377
:10090A0061F4A898A99857D30FD458D30DD407D413
:10091A0019F0E4E6F0E0C3D308C109D4ACE9B1E0C8
:10092A0072D3E9F410E0143050F458D3EB5DFF4F62
:10093A0001D454D3E1D3D00170D41F5FF4CFE2EFD6
:10094A00F0E0ADD3A5E2B0E0F9D3A6E2B0E0F6D389
:10095A00A7E2B0E0F3D3A8E2B0E0F0D3E6C0E7D371
:10096A00A2EAB1E050D359F500E00B30F8F4E9D32C
:10097A00EBD310F0EED350F06CD3E050F0400F01FF
:10098A0068D3DE015C96BCD3D0010DC062D3E050BF
:10099A00F040BF015ED3DE015C96ABD3CBD359D313
:1009AA00ABD329D3DB0139D40F5FDFCF0B30F0F3A0
:1009BA00E0E0F1E074D3DE015C9630D1B6C0B7D383
:1009CA00A7EAB1E020D359F500E00B30F8F4B9D327
:1009DA00BBD310F0BED350F03CD3E55FFF4F0F01FD
:1009EA0038D3DE0151968CD3D0010DC032D3E55FE6
:1009FA00FF4FBF012ED3DE0151967BD39BD329D360
:100A0A007BD3F9D2DB0109D40F5FDFCF0B30F0F3D0
:100A1A00EBE0F1E044D3DE01519600D186C087D3E2
:100A2A00ACEAB1E0F0D259F500E00B30F8F489D322
:100A3A008BD310F08ED350F00CD3EA5EFF4F0F0128
:100A4A0008D3DE0116965CD3D0010DC002D3EA5E4C
:100A5A00FF4FBF01FED2DE0116964BD36BD3F9D2FC
:100A6A004BD3C9D2DB01D9D30F5FDFCF0B30F0F301
:100A7A00E7E1F1E014D3DE011696D0D056C049D38F
:100A8A00A1EBB1E0C0D211F419D24FC050D3A6EBFA
:100A9A00B1E0B9D239F52E97E0E0E883A881AD300C
:100AAA00D8F45AD3E85FFD4FA081A03310F051D398
:100ABA0030F052D3ECD2AE0FBF1FE0E308C04CD3E4
:100ACA00E6D2AE0FBF1F48D3E85FFD4FE081EC933B
:100ADA00E881EF5FE883E2CFDAD2F7D175DC16D38B
:100AEA002E9625C016D3AEEBB1E08DD239F4A4E22E
:100AFA00B0E0E2E092D3E6E3F1E014C00AD3AAEC54
:100B0A00B1E081D231F4A4E2B0E006D3E4E5F1E049
:100B1A0009C0FFD2A7EDB1E076D211F406DE05C016
:100B2A00EAE6F1E0FA93EA93D7D24EDCEFD291D318
:100B3A00E9960895EFE0E7BBE0E0E8BBE3E0E4BB59
:100B4A00E0E0E5BBE2E0E1BBECE0E2BBE0E0E3BF12
:100B5A00E2BFE9BFEBB7E06CEBBFEAE0E5BFE0EC70
:100B6A00EABFE3E0EBB9E8EDEAB9E6E8E0BDE0E0C8
:100B7A00E0BDECE0E9B9789449D2AFE4F0D222F0D2
:100B8A0045D2ABE4ECD29AF4E7E7F1E088D2ECE79D
:100B9A00F1E085D2A8EEB3E013D338D2AFE4DFD2C6
:100BAA0022F034D2ABE4DBD20AF40EDCE5CFE3E880
:100BBA00F1E075D2D7D2ECE7F1E071D2D3D2EFE807
:100BCA00F1E06DD2CFD2E3EAF1E069D2CBD2EFEA1B
:100BDA00F1E065D2C7D2A3E2B0E04FD279F4A5E240
:100BEA00B0E091D2A6E2B0E08ED2A7E2B0E08BD21A
:100BFA00A8E2B0E088D2A3E2B0E096D25BD211F4C8
:100C0A00A89A01C0A8985AD211F4A99A01C0A99821
:100C1A00DBDB442009F005DCFCCFFFCFA5D21A9319
:100C2A00A981BA81ED91A983BA831E2FE03019F008
:100C3A00A12FAADBF5CFAAE0A7DB63C195D2AA81CF
:100C4A00A3DBA881B981ED91FD913196FE93EE93D4
:100C5A0059C18AD22697F6D210E0AC85BD85E0E06C
:100C6A00F0E0ED93FC93EA89FB893196EA8BFB8BE2
:100C7A003197E4912E2FE03009F4FCC0E12FE030E7
:100C8A0031F4253211F411E001C071D2F2C0E13021
:100C9A00A1F4253211F46BD2EBC012E040E000E07F
:100CAA002D3211F401E0E5C02B3211F44BE2E1C020
:100CBA00203211F440E2DDC002C0E23039F450E0E3
:100CCA0013E0203311F40068D4C003C0E33009F004
:100CDA00D0C0203310F02A3308F007C0AAE05A9F88
:100CEA00502DE22FE0535E0FC4C0E22FE33639F4F1
:100CFA0045D247D243D2A481AA9347D2B9C0E33797
:100D0A0029F449D24AD213D11E2F07C0E03749F439
:100D1A0042D243D217D11E2F086002600F7730E00B
:100D2A002DC0E43611F0E93611F4046002C0E5374B
:100D3A0029F4E6E2F0E03AD215E00BC0E83511F406
:100D4A00086003C0E83709F093C0E0E3F0E02ED270
:100D5A0014E002FF11C01FD22CD2AB85AA2332F4B1
:100D6A00EA85FB853BD2EA87FB874DE2403011F0EA
:100D7A001F5F01C00B7F02C00ED21BD200FD10C044
:100D8A00151770F407FF08C002FF04C00B7F242F59
:100D9A00115001C020E301C020E2E9D15150F0CF47
:100DAA00312F01FF15C0303091F003FF05C0EE81ED
:100DBA00FF812591FBD105C0AE81BF812D91AE8304
:100DCA00BF83D5D1503009F051503150ECCF47C0D4
:100DDA0020E3EE81FF810AD2E887F987EE81FF815D
:100DEA003296E4D1E885F985AA85BB85AE17BF0797
:100DFA0050F02F5FA885B985EA85FB85EA1BFB0BB6
:100E0A00EA87FB87EFCF2A3328F003FF02C0295F66
:100E1A0001C0295D04FD19C0213320F4A885B985D4
:100E2A00119709F409C0531710F000FF01C011C04F
:100E3A0020E207FF0AC020E3006102FF06C00B7F21
:100E4A004A93A3D1503009F0515091D1503009F052
:100E5A0051503150A885B985129708F0B9CF00FFD3
:100E6A0007C0503029F05150E0E2EA938ED1F9CF11
:100E7A0010E0F9CEAC85BD85B5D1EBD16496089565
:100E8A00FF92F82E2697E2D1DE011496A3D18D01A6
:100E9A00E0E0EC83ED83EE83EF83DE0118969AD1CE
:100EAA00A1D124D11A930A93E3E2F6E01FD1DE011D
:100EBA001896CFDED2D12896FF900895E2EDF1E0A0
:100ECA00EED0EEEDF1E0EBD008954ED11A93E2EDBB
:100EDA00F1E0E5D0EAEEF1E0E2D010E0A981BA81D2
:100EEA0026D0C8D0AE17BF0748F4A981BA81EE2729
:100EFA00A10FBE1FAC9148DA1F5FF0CFE5EEF1E01B
:100F0A00CED01881239608952FD1E991F991A9910C
:100F1A00B9916D917191671721F46623D1F7EE2784
:100F2A000895671BE1F3E1E008F4E25008951CD14B
:100F3A00A991B991EE27FF276D91662311F0319699
:100F4A00FBCF089511D1AA27BB27E991F991059002
:100F5A00002011F01196FBCFFD010895AA93699123
:100F6A00A991B991EE27FF277D91671729F031964C
:100F7A007723D1F7EFEFFFEF0895AA936991A9912B
:100F8A00B991EFEFFFEF882799277D91671709F449
:100F9A00FC0101967723C9F708950A921A92FA92E8
:100FAA006A937A938A939A93AA93BA93EA93FA934F
:100FBA00EFB7EA930895A1E2B0E00895A2E2B0E0A3
:100FCA000895B0E0FDC0EA93FA93EFB7EA93089563
:100FDA00E15AFD4F0895E091EF030895E12FF0E003
:100FEA000895E550FE4F08950F01A12FB0E008952E
:100FFA00E0E0EC930895D001EC930895E1EEF1E07E
:10100A00FA93EA93089580DFE0300895EFE5F2E07D
:10101A00FA93EA9308953196DF010895EA0FFB1FC8
:10102A00D7DFE0810895E3E5F0E0FA93EA9380E000
:10103A0027DF2296A2E3C5CFE5E5F0E0FA93EA932B
:10104A0080E01EDF2296C0C9A2E288CFE22FF0E03C
:10105A000895E02FF0E00895CDD0EA1BFB0B089528
:10106A00A02FB0E0AE17BF070895A32FB0E0AE17C8
:10107A00BF070895A12FB0E00895C3D0EF3F0895A8
:10108A00AE0FBF1FE0E00895EA0FFB1FADCFDE01F0
:10109A0011960895E5EEF1E0FA93EA930895FA932A
:1010AA00EA9380E0EDDE229608958ED9E89420F83E
:1010BA009924089580DFA5D0E13008957FDFA1D07B
:1010CA00E1300895A9987ADFE0E0A7D00895A99AB7
:1010DA0075DFE1E0A2D0089580E0D2DE229608957D
:1010EA00EBEFF1E0FA93EA93A0E20895FA93EA9318
:1010FA000895EA0FFB1F0895FCDF73DFE08108956E
:10110A00AE0FBF1F75CFE0E388D00895E89421F8A9
:10111A000895ECEDF1E0EACFE1E07FD00895A4E292
:10112A00B0E06FD0E1300895E0E077D00895FE0195
:10113A00B796DCCF0F01A22FBB27089562D0AE2F3E
:10114A0023C9A22FBB2785CFD4DF4BDFA081A033D1
:10115A000895A081AA330895E881F0E00895FEDE9B
:10116A00FF230895A8EC2DCFBA93AA9308952A9342
:10117A00AD85BE85EF85F88909950895E889F989CD
:10118A0008953497E88BF98B0895AD85BE85EF8570
:10119A00F88909950895F2DFF4CFA889B9891496D8
:1011AA0021D0EE83FF83AE81BF810895EE83FF8352
:1011BA000895A889B989149615D0EA87FB870895F6
:1011CA00109639F08AEF90E00197F1F7A8951197F8
:1011DA00C9F708950024AF0DB01D0895F195E19562
:1011EA00F0400895ED91FC91119708950590F491BE
:1011FA00E02D08951B2EBF2FF12D1A2EAE2FE12DB3
:10120A000895E199FECFFF93FFB7F894AEBBBFBB39
:10121A00E09AEDB3FFBFFF910895E19B02C0A89544
:10122A00FCCF9FB7F894AEBBBFBBE09A8DB3E8176B
:10123A0019F0EDBBE29AE19A9FBF089500240E16B9
:10124A000F0608955A934A933A932A931A930A9344
:10125A0008955D814C813B812A8119810881089515
:00000001FF
