:08000000F7C022C12CC1FCCFA6
:10000800FBCFFACFF9CFF8CFF7CFF6CFF5CF3EC178
:10001800F3CF58C1F1CFF0CFEFCFEECFEDCF102710
:10002800E80364000A00010000100001100001004C
:1000380000000A000000000000000000434C495086
:1000480000434D543A0043555344002E0074696DE3
:1000580065206F7574004154480D0A006F6666008C
:100068006F6E00726573657420737563636573736F
:100078000070617373776F7264206572726F7200BB
:100088006F6E31006F6E32006F666631006F6666A4
:100098003200646F696D6B00737563636573733ADF
:1000A800007468656D3100736474313A0074686572
:1000B8006D32000A736474323A007468656D3300F7
:1000C800736474333A006B74746B006E6170746996
:1000D800656E0041540D0A00415445300D0A004137
:1000E800542B434D47463D310D0A0041542B434E96
:1000F8004D493D322C322C302C302C300D0A004129
:10010800542B435553443D310D0A0041542B434D64
:100118004744413D44454C20414C4C0D0A00313088
:1001280039006868686868680000415444003B0DFD
:100138000041542B434D47533D0041542B435553E5
:10014800443D310D0A004154442A313031233B0DDE
:100158000A004154442A3130302A000001000200CC
:100168003800090005003A00050060014400050058
:100178006501490005006A014E0005006F01440051
:1001880005007401490005007901490005007E0158
:100198004E00040083018800040087018C000500DC
:1001A8008B019000050090019500030095016800FF
:1001B80004009801640006009C019A000600A20150
:1001C800A9000600A801B5000600AE01C20005009E
:1001D800B401CE000800B901D3000400C101260112
:1001E8000700C5012A010000F894EE27ECBBF1E0F6
:1001F800FBBFEBBFE5BF8DE0A2E0BB27ED938A957F
:10020800E9F780E094E0A0E6ED930197E9F7E4E6EA
:10021800F1E085919591009761F0A591B5910590D0
:100228001590BF01F00105900D920197E1F7FB01D0
:10023800F0CFEFE5EDBFE4E0EEBFC0E6D1E0E1C30B
:1002480030D6A89B02C0A89801C0A89A38D659D71A
:10025800E09535D60AC025D6A99B02C0A99801C049
:10026800A99A30D64ED7E0952DD657D7A4E12DD6EA
:10027800E991EFBFF991E991B991A9919991899182
:1002880079916991F99019900990189520D65ED7BF
:100298001BB10CB1E12FEC7191F4E82D8394F0E0DF
:1002A8001BD60083E1E04E2EEAEFE81509F4882416
:1002B800A394EAEFEA1519F4AA24689422F809919C
:1002C800199113C004D60BD6E03079F008D6E15066
:1002D800E093DF03EC2DC394F0E0E75BFC4FE08193
:1002E800ECB9E6E9EC1509F4CC24E991EFBFF991F2
:1002F800E9911895AA93A091DF03A639E1F3F89440
:10030800EED5E03011F45D9910C0ED2DD394F0E0F6
:10031800E75BFC4FA881A083E6E9ED1509F4DD242D
:10032800DED5EF5FE093DF0302C0E881ECB9789493
:10033800219608951A9310E0181520F5D3D5CCD539
:10034800FF93EF93CFD5D1D5FF93EF93CBD5EB5256
:10035800FE4FCF01C7D5E052FE4FBF01C3D5E453CE
:10036800FE4FC6D5AF52BE4FC7D5C9D5DB01EC93FA
:10037800DC01EC93AF91BF91EC93AF91BF91EC93FB
:100388001F5FDACF882466249924442485C1DAD6ED
:1003980050E040E0B7D5A0E6B1E0B9D551F0B2D50C
:1003A800A5E6B1E0B4D529F0ADD5AAE6B1E0AFD560
:1003B80009F41AC010E0143080F494D5EF52FE4FBF
:1003C800FF93EF93A7D5ABE24DD5A9D58BD5AAD589
:1003D800AF91BF91EC931F5FEECF5F5FA8D555310A
:1003E80010F0AED501C0D6CF8DD5AFE6B1E08FD530
:1003F80011F5E1E07E2E8ED5ABD52E2FABD5E65A82
:10040800FD4FA081A23211F4EAE001C0EBE05E2EBC
:1004180000E0051558F4A1D5EB52FE4F0F019AD50F
:100428007ED59BD57FD56BD50F5FF3CF689420F829
:1004380020FC00D180C066D5A4E7B1E068D509F0FA
:1004480058C0E2E07E2E66D5AEE20CD577D63CF0F9
:100458004F5F6DD5453110F073D501C0F4CF52D53B
:10046800A9E7B1E054D509F043C054D5A3E2FAD4C2
:100478002E2F2130E8F100E04DD5AEE2F3D4DF01B4
:1004880069D56ED571D554F468D52FD50F0162D5CD
:1004980046D563D547D533D50F5FEECF31E03AD592
:1004A800ACE2E0D4FF93EF9335D552D5AF91BF912D
:1004B800AE1BBF0BE4E0F0E053D55BD5ACF4E0E352
:1004C800E093E001E32FF0E0E052FE4FFF93EF935B
:1004D80021D53ED53396DF01E32FF0E023D5AF9148
:1004E800BF91EC933F5FDBCF689421F821FCD6D015
:1004F80022C008D5AEE7B1E00AD5E9F40BD528D576
:100508002E2F00E007D5A2E2BCD4DF0123D5AE1B15
:10051800BF0BE1E0F0E024D527D554F41ED5E5D48F
:100528000F0118D5FCD419D5FDD4E9D40F5FEACF53
:10053800ABEEB1E023D50DD626960895A4E2B0E03F
:10054800E0D5A091EB01EA17A9F4A5E2B0E0D9D56E
:10055800A091EC01EA1771F4A6E2B0E0D2D5A0911F
:10056800ED01EA1739F4A7E2B0E0CBD5A091EE018E
:10057800EA1709F003C0E1E06E2E01C06624089571
:10058800A1971A9310E01B30C8F5FAD4A050B040D8
:10059800FAD429F4A7D4DE015796F8D408C0A2D417
:1005A800DE015796F7D4A050B040ABD5D001EC93FC
:1005B800E7D4A55FBF4FE7D429F494D4DE011C9695
:1005C800E5D408C08FD4DE011C96E4D4A55FBF4FE4
:1005D80098D5D001EC93D4D4AA5EBF4FD4D421F4DB
:1005E80081D4DBD4D3D407C07DD4D7D4D3D4AA5EE6
:1005F800BF4F87D5D001EC931F5FC5CF1B30F0F3F9
:10060800A4E163D420FE13C0CBD4DE0159967FD475
:1006180051F0C6D4DE011E967AD429F0C1D4DE0189
:10062800139675D419F4E1E09E2E01C0992418811F
:10063800A29608951A9310E0A3DF992069F41F5F2A
:1006480076D4153140F0E5E5F0E0AFD4EEE5F0E022
:10065800ACD4B1D401C0F1CFE1E0E915E9F42FD46D
:10066800AFD419F42FD4ACD409F007C0A898ABD4F0
:1006780026D453D5E4E6F0E006C0A89AA9D41FD43E
:100688004CD5E8E6F0E0FA93EA9380E061D322964D
:10069800EEE5F0E08AD48FD419910895E397E0E06D
:1006A800E8AB50D540E02BE098D4EBD3E8AF95D435
:1006B800D9D3EFABEBEEF1E096D4AEE2E2D34E2F16
:1006C80030E0E42FF0E0359754D464F4A32FB0E081
:1006D800A453BE4FE32FF0E0E051FE4FE081EC93CE
:1006E8003F5FEFCF50E0A8ADBB27EFA9F0E0319610
:1006F80037D4A52FB0E07AD47CF4E52FF0E0DE0102
:10070800979677D40F01EFA9F0E009D4E52FF0E030
:1007180073D4F5D35F5FE7CFEFA9EF5FA8ADAE1B4A
:100728005A2F5F3038F4E52FF0E0DE01979668D451
:100738005F5FF7CFA091EB01A33661F4A091EC01C4
:10074800A43741F4A091ED01A13621F4A091EE0166
:10075800A73409F013C02197E0E0E883A881A4300A
:1007680040F4B0E0AC5DBF4F4ED4E881EF5FE88362
:10077800F5CFEBE6F0E019D449D42196DFDE662008
:1007880089F4DCDEEEA9EF5FEEABA2E39ED3AEA95F
:10079800A93238F0E9E7F0E008D4CCDD66243AD491
:1007A80001C0EDCFE1E0E61509F028C136D4A3E891
:1007B800B1E0ADD329F4A89A82D3E1E031D41EC1C7
:1007C8002CD4A7E8B1E0A3D319F402D41FD416C1DE
:1007D80024D4ABE8B1E09BD329F4A89870D3E0E027
:1007E8001FD40CC11AD4A0E9B1E091D319F4EBD30A
:1007F8000DD404C112D4A5E9B1E089D349F4A89A6B
:10080800A99A5DD3E1E089D45DD3E1E009D4F6C0CB
:1008180004D4A8E9B1E07BD349F4A898A9984FD3A8
:10082800E0E07BD44FD3E0E0FBD3E8C0FBD3ACE9F6
:10083800B1E06DD3F1F410E0143050F453D3EC5D13
:10084800FF4FF3D34FD3D8D3D00167D41F5FF4CF72
:10085800E0EAF0E0AAD3A4E2B0E0EBD3A5E2B0E08E
:10086800E8D3A6E2B0E0E5D3A7E2B0E0E2D3CED386
:10087800C5C0D8D3A2EAB1E04AD361F500E00B3095
:10088800F8F4DAD3DCD310F0DFD350F066D3E050BD
:10089800F0400F0162D3DE015C96B2D3D0010DC0E7
:1008A8005CD3E050F040BF0158D3DE015C96A1D381
:1008B800BCD353D3A1D323D3DB012FD40F5FDFCF16
:1008C8000B30F0F3EFEAF0E070D3DE015C9656D31C
:1008D800A1D394C0A7D3A8EAB1E019D361F500E089
:1008E8000B30F8F4A9D3ABD310F0AED350F035D316
:1008F800E55FFF4F0F0131D3DE01519681D3D0015F
:100908000DC02BD3E55FFF4FBF0127D3DE01519602
:1009180070D38BD322D370D3F2D2DB01FED30F5F17
:10092800DFCF0B30F0F3EBEBF0E03FD3DE01519675
:1009380025D370D363C076D3AEEAB1E0E8D261F5CF
:1009480000E00B30F8F478D37AD310F07DD350F070
:1009580004D3EA5EFF4F0F0100D3DE01169650D391
:10096800D0010DC0FAD2EA5EFF4FBF01F6D2DE0118
:1009780016963FD35AD3F1D23FD3C1D2DB01CDD3A0
:100988000F5FDFCF0B30F0F3E8ECF0E00ED3DE01C1
:100998001696F4D23FD332C040D3A4EBB1E0B7D21D
:1009A80019F417D233D32AC03DD3A9EBB1E0AFD2A3
:1009B80029F52E97E0E0E883A881AD30D8F447D335
:1009C800E850FE4FA081A03310F03ED330F03FD363
:1009D800E4D2AE0FBF1FE0E308C039D3DED2AE0FBA
:1009E800BF1F35D3E850FE4FE081EC93E881EF5FFD
:1009F800E883E2CFD2D2F4D109D32E96AAD3E996CE
:100A08000895EFE0E7BBE0E0E8BBE3E0E4BBE0E04B
:100A1800E5BBE2E0E1BBECE0E2BBE0E0E3BFE2BF64
:100A2800E9BFEBB7E06CEBBFEAE0E5BFE0ECEABF9B
:100A3800E3E0EBB9E8EDEAB9E6E8E0BDE0E0E0BD07
:100A4800ECE0E9B9789466D2AFE40CD2FF2382F4E3
:100A5800EBEDF0E0AAD2E0EEF0E0A7D2A8EEB3E02A
:100A68002FD358D2AFE4FED1FF230AF463DCEBCFD7
:100A7800E7EEF0E09AD2EED2E0EEF0E096D2EAD2DB
:100A8800E3EFF0E092D2E6D2E7E0F1E08ED2E2D2F4
:100A9800E3E1F1E08AD2DED2A3E2B0E074D281F4DD
:100AA800A4E2B0E0B0D2A5E2B0E0ADD2A6E2B0E0F8
:100AB800AAD2A7E2B0E0A7D2A3E2B0E0E0E02DD34B
:100AC800FED17ED211F4A89A01C0A898FBD178D2A1
:100AD80011F4A99A01C0A9982DDCE1ECF1E083D2C8
:100AE800A5ECB1E053D1442009F051DCFCCFFFCF95
:100AF800B3D21A93B4D2ED91A983BA831E2FE030F2
:100B080019F0A12FF7DBF6CFAAE0F4DB7EC1A4D25F
:100B1800AA81F0DBA881B981ED91FD913196FE9310
:100B2800EE9374C199D226970DD310E0AC85BD859C
:100B3800E0E0F0E0ED93FC93EA89FB893196EA8BDB
:100B4800FB8B3197E4912E2FE03009F4FBC0E12FA5
:100B5800E03031F4253211F411E001C083D2F1C044
:100B6800E130A1F4253211F47DD2EAC012E040E070
:100B780000E02D3211F401E0E4C02B3211F44BE215
:100B8800E0C0203211F440E2DCC002C0E23039F4A7
:100B980050E013E0203311F40068D3C003C0E33001
:100BA80009F0CFC0203310F02A3308F007C0AAE0BC
:100BB8005A9F502DE22FE0535E0FC3C0E22FE33659
:100BC80039F457D259D255D2A481AA9359D2B8C070
:100BD800E33729F45BD25CD22ED11E2F07C0E03751
:100BE80049F454D255D232D11E2F086002600F77D3
:100BF80030E02DC0E43611F0E93611F4046002C08B
:100C0800E53729F4E6E2F0E04CD215E00BC0E83510
:100C180011F4086003C0E83709F092C0E0E3F0E09F
:100C280040D214E002FF11C031D23ED2AB85AA23D4
:100C380032F4EA85FB8552D2EA87FB874DE24030E1
:100C480011F01F5F01C00B7F02C020D22DD200FD22
:100C580010C0151770F407FF08C002FF04C00B7F0F
:100C6800242F115001C020E301C020E2FBD15150D4
:100C7800F0CF312F01FF15C0303091F003FF05C0D0
:100C8800EE81FF8125910DD205C0AE81BF812D91E6
:100C9800AE83BF83E7D1503009F051503150ECCFCB
:100CA80046C020E3EE81FF8121D2E887F987EE81F3
:100CB800FF813296F6D1E885F985AA85BB8596D15C
:100CC80050F02F5FA885B985EA85FB85EA1BFB0BE9
:100CD800EA87FB87F0CF2A3328F003FF02C0295F99
:100CE80001C0295D04FD19C0213320F4A885B98508
:100CF800119709F409C0531710F000FF01C011C083
:100D080020E207FF0AC020E3006102FF06C00B7F54
:100D18004A93B6D1503009F05150A4D1503009F05F
:100D280051503150A885B985129708F0BACF00FF05
:100D380007C0503029F05150E0E2EA93A1D1F9CF31
:100D480010E0FACEAC85BD85CDD103D26496089566
:100D5800FF92F82E2697FAD1DE011496BBD18D01A9
:100D6800E0E0EC83ED83EE83EF83DE011896B2D1E9
:100D7800B9D139D11A930A93EBE8F5E034D1DE0101
:100D88001896D0DEEAD12896FF90089565D11A9377
:100D9800E9E3F1E00AD1A2E2ADDA10E0AB81BC816F
:100DA8004AD0EED023D128F4AB81BC8184D11F5F17
:100DB800F5CFA2E29FDAE7E3F1E0F7D0A2E385D02E
:100DC8004ED196DEAAE081D0AAE194DA1881259660
:100DD8000895E2E4F1E0E9D0EEE4F1E0E6D0089528
:100DE8003BD11A93E2E4F1E0E0D0EAE5F1E0DDD0AE
:100DF80010E035D120D0C4D0F9D020F430D15BD167
:100E08001F5FF7CFE5E5F1E0D0D01881239608956C
:100E180023D1E991F991A991B9916D9171916717D0
:100E280021F46623D1F7EE270895671BE1F3E1E08B
:100E380008F4E250089510D1A991B991EE27FF273F
:100E48006D91662311F03196FBCF089505D1AA273D
:100E5800BB27E991F9910590002011F01196FBCF7D
:100E6800FD010895AA936991A991B991EE27FF27E9
:100E78007D91671729F031967723D1F7EFEFFFEFD0
:100E88000895AA936991A991B991EFEFFFEF882787
:100E980099277D91671709F4FC0101967723C9F713
:100EA80008950A921A92FA926A937A938A939A9375
:100EB800AA93BA93EA93FA93EFB7EA930895A1E253
:100EC800B0E00895A2E2B0E00895B0E0F9C0EA9376
:100ED800FA93EFB7EA930895E15BFD4F0895E09127
:100EE800DF030895E12FF0E00895E551FE4F0895DE
:100EF8000F01A12FB0E00895E0E0EC930895D00130
:100F0800EC930895E1EDF1E0FA93EA93089580DF18
:100F1800E0300895EFE4F2E0FA93EA930895319609
:100F2800DF010895EA0FFB1FD7DFE0810895E3E5AD
:100F3800F0E0FA93EA9380E00BDF2296A2E3C5CFB4
:100F4800E5E5F0E0FA93EA9380E002DF2296F2C941
:100F5800A2E288CFE22FF0E00895E02FF0E00895B4
:100F6800C9D0EA1BFB0B0895A02FB0E0AE17BF074E
:100F78000895A32FB0E0AE17BF070895B9DDDAC909
:100F8800A12FB0E00895BDD0EF3F0895AE0FBF1F69
:100F9800E0E00895EA0FFB1FABCFDE01119608953C
:100FA800E5EDF1E0FA93EA930895FA93EA9380E085
:100FB800CFDE22960895BED9E89420F899240895A2
:100FC800A0D0E1300895A9987DDFE0E0A6D008958B
:100FD800A99A78DFE1E0A1D00895EBEEF1E0FA9369
:100FE800EA93A0E20895FA93EA930895AE17BF072B
:100FF8000895EA0FFB1F0895FCDF77DFE08108956D
:10100800AE0FBF1F79CFE0E388D0089593D9E89455
:1010180021F80895E89421F80895ECECF1E0E3CF85
:101028007CD0F4CFFE01B796DECF0F01A22FBB27ED
:10103800089567D0AE2F5EC9A22FBB278ECFD9DF08
:1010480054DFA081A0330895A081AA330895E881D0
:10105800F0E00895A8EC39CFBA93AA930895A9812E
:10106800BA8108952A93AD85BE85EF85F8890995DB
:101078000895E889F98908953497E88BF98B0895DC
:10108800AD85BE85EF85F88909950895F2DFF4CF1F
:10109800A889B989149626D0EE83FF83AE81BF81D3
:1010A8000895EE83FF830895A889B98914961AD004
:1010B800EA87FB870895EE27A10FBE1FAC911AC9D6
:1010C800109639F08AEF90E00197F1F7A8951197FB
:1010D800C9F708950024AF0DB01D0895F195E19565
:1010E800F0400895ED91FC91119708950590F491C1
:1010F800E02D08951B2EBF2FF12D1A2EAE2FE12DB6
:101108000895E199FECFFF93FFB7F894AEBBBFBB3C
:10111800E09AEDB3FFBFFF910895E19B02C0A89547
:10112800FCCF9FB7F894AEBBBFBBE09A8DB3E8176E
:1011380019F0EDBBE29AE19A9FBF089500240E16BC
:101148000F0608955A934A933A932A931A930A9347
:1011580008955D814C813B812A8119810881089518
:00000001FF
