:0C0000007DC1A8C1B2C1FCCFFBCFFACF7C
:10000C00F9CFF8CFF7CFF6CFF5CFC4C1F3CFDEC120
:10001C00F1CFF0CFEFCFEECFEDCF1027E803640098
:10002C000A000100001000011000010000000A008D
:10003C000000000000000000312632204F4E00313D
:10004C003A4F4E20323A4F464600313A4F46462000
:10005C00323A4F4E00312632204F464600434C492F
:10006C005000434D543A004355534400732E0054F2
:10007C004B20676F63004D6120736F2074686500BF
:10008C00546169206B686F616E0074696D65206FD7
:10009C007574004154480D0A006D6174206B6861E1
:1000AC00753A2030303030006D6174206B686175AA
:1000BC0020736169006F6E31006F6E32006F66667F
:1000CC0031006F666632006F6E006F666600646F9B
:1000DC00696D6B00446F69206D6174206B6861758C
:1000EC00207468616E6820636F6E6700736474318E
:1000FC00004461207468656D20736474310073640E
:10010C007432004461207468656D2073647432002D
:10011C0073647433004461207468656D2073647477
:10012C0033006B74746B006E61707469656E00746F
:10013C00686F6E6762616F206F6E0042617420742D
:10014C00686F6E672062616F0074686F6E676261C2
:10015C006F206F6666005461742074686F6E672040
:10016C0062616F006B747474004C6F69206375204E
:10017C00706861700041540D0A00415445300D0AFD
:10018C000041542B434D47463D310D0A0041542B41
:10019C00434E4D493D322C322C302C302C300D0A34
:1001AC000041542B435553443D310D0A0041542B0F
:1001BC00434D4744413D44454C20414C4C0D0A00B5
:1001CC0041542B434D47533D000D0041542B435597
:1001DC0053443D310D0A004154442A313031233B04
:1001EC000D0A004154442A3130302A00010002002B
:1001FC003800090005003A000700600144000B00BC
:10020C0067014B000B007201560008007D01610074
:10021C0005008501690005008A016E0005008F014B
:10022C007300050094016900050099016E0005003A
:10023C009E016E000500A30173000700A8017B005E
:10024C000A00AF0182000A00B9018C000700C3014B
:10025C007B000A00CA0182000A00D4018C000F0046
:10026C00DE01A5000D00ED01B4000400FA01C1008F
:10027C000400FE01C50005000202C90005000702CA
:10028C00CE0003000C02D30004000F02D6000600BF
:10029C001302DA0018001902E00005003102F80020
:1002AC000D003602FD00050043020A010D00480254
:1002BC000F01050055021C010D005A022101050019
:1002CC0067022E0108006C0233010C0074023B0122
:1002DC000E00800247010D008E0255010E009B029C
:1002EC0062010500A90270010C00AE02750100004C
:1002FC00F894EE27ECBBF1E0FBBFEBBFE5BF8DE064
:10030C00A2E0BB27ED938A95E9F780E094E0A0E6A4
:10031C00ED930197E9F7E8EFF1E08591959100975E
:10032C0061F0A591B59105901590BF01F001059074
:10033C000D920197E1F7FB01F0CFEFE5EDBFE4E0A3
:10034C00EEBFC0E6D1E078C455D6A89B02C0A898F1
:10035C0001C0A89A5DD69DD7E0955AD60AC04AD658
:10036C00A99B02C0A99801C0A99A55D692D7E0952D
:10037C0052D69BD7A4E152D6E991EFBFF991E991FE
:10038C00B991A9919991899179916991F990199063
:10039C000990189545D6A2D71BB10CB1E12FEC7181
:1003AC0091F4E92D9394F0E040D60083E1E04E2ED9
:1003BC00EEE6E91509F49924B394EEE6EB1519F47D
:1003CC00BB24689422F8099119910FC029D6CC202E
:1003DC0061F0CA94ED2DD394F0E0E754FC4FE0812A
:1003EC00ECB9E1E0ED1509F4DD24E991EFBFF991E9
:1003FC00E9911895AA93E1E0EC15E9F3F894CC2077
:10040C0011F45D990DC0EA2DA394F0E0E754FC4F74
:10041C00A881A083E1E0EA1509F4AA24C39402C0E0
:10042C00E881ECB97894219608951A9310E0191587
:10043C00E0F4FED5FAD5FF93EF93FAD5FCD5CF01B6
:10044C00F7D5FCD5BF01F4D5E654FD4FFAD5A8522B
:10045C00BD4FE0E0EC93F9D5DB01EC93DC01EC93C0
:10046C00AF91BF91EC931F5FE2CF99247724662460
:10047C00442424C225D2E13021F4EAD5A0E6B1E02F
:10048C0011C0E23021F4E4D5A7E6B1E00BC0E330B3
:10049C0021F4DED5A2E7B1E005C0E43021F4D8D5D3
:1004AC00ADE7B1E02ED508952B9714D750E040E07E
:1004BC00D4D5A5E8B1E0D6D551F0CFD5AAE8B1E0B6
:1004CC00D1D529F0CAD5AFE8B1E0CCD509F41AC022
:1004DC0010E0143080F4ACD5E852FD4FFF93EF934D
:1004EC00C4D5ABE268D5C6D5A3D5C7D5AF91BF915E
:1004FC00EC931F5FEECF5F5FC5D5553110F095DFE4
:10050C0001C0D6CFAAD5A4E9B1E0ACD509F042C060
:10051C00ACD5BAD52E2FBAD5EA5AFC4FA081A2324F
:10052C0011F4EAE001C0EBE05E2E00E0051550F49A
:10053C00B0D584D50F01AAD59DD5ABD59ED585D583
:10054C000F5FF4CFA9D571F4AFD561F4B5D551F4E3
:10055C00BBD541F4AAE2B0E09CD6AE2FE091E50207
:10056C00EA1799F000E00B3080F493D567D5B4D539
:10057C0010F0B5D518F0B6D5E0E004C0B3D589D5E8
:10058C005DD5E08192D60F5FEECF689420F820FC09
:10059C0068D1F0C062D5A9E9B1E064D509F07FC09B
:1005AC0064D5AEE208D592D63CF04F5F6BD54531A1
:1005BC0010F03BDF01C0F4CF50D5AEE9B1E052D51D
:1005CC0009F06CC052D5A3E2F6D42E2F213008F4DA
:1005DC0065C000E04AD5AEE2EED4DF0157D587D531
:1005EC008AD554F456D527D50F0150D543D551D5BE
:1005FC0044D52BD50F5FEECF31E037D5ACE2DBD451
:10060C00FF93EF9332D540D5AF91BF91AE1BBF0B8B
:10061C00E4E0F0E06CD574D5AE17BF0794F4E0E3DA
:10062C00E093DC0270D50AD5FF93EF931ED52CD541
:10063C003396DF0168D521D5AF91BF91EC933F5F25
:10064C00DCCF2AD571F430D561F436D551F43CD5D4
:10065C0041F4A8E2B0E01DD6AE2FE091E302EA1718
:10066C00C9F030E03B30B0F4E8E7F0E04FD551D5BD
:10067C004AD5E4D431D510F032D520F041D54DD542
:10068C00E0E005C03DD549D53ED5D8D4E0810DD6A6
:10069C003F5FE8CF689421F821FC22D16BC0DDD4F8
:1006AC00A3EAB1E0DFD409F065C0DFD4EDD42E2F7E
:1006BC0000E0DBD4A2E28ED4DF01E8D4AE1BBF0B8A
:1006CC00E1E0F0E014D517D554F4E3D4B4D40F0121
:1006DC00DDD4D0D4DED4D1D4B8D40F5FEACF40E08F
:1006EC001FD5A8EAB1E0BED454F41AD5AFEAB1E0F4
:1006FC00B9D42CF415D5A9EBB1E0B4D40CF00AC0E4
:10070C004F5FC0D4453128F0E6E9F0E00CD50DD5AB
:10071C0001C0E6CF05D5A3ECB1E0A4D454F400D5C8
:10072C00AAECB1E09FD42CF4FBD4A4EDB1E09AD4A4
:10073C000CF130E03B30B8F4E3D4EFD4AAD5E0337D
:10074C0010F0EA3328F0DFD4DE011696F3D408C09B
:10075C00DAD4DE011696F2D40F01D2D4DED4F1D461
:10076C00EC933F5FE7CFFE013696D0D4A7EEB2E014
:10077C00C8D3DBD4B6D561960895A0E3B0E089D593
:10078C00A091E702EA17A9F4A1E3B0E082D5A09109
:10079C00E802EA1771F4A2E3B0E07BD5A091E9027C
:1007AC00EA1739F4A3E3B0E074D5A091EA02EA1792
:1007BC0009F003C0E1E07E2E01C077240895A197D3
:1007CC001A9310E01B30A8F5BFD4C1D4C3D429F4BC
:1007DC002FD4DE015796AED407C02AD4DE0157962B
:1007EC00ADD42FD4B4D4ADD4EC93AED4B6D4B2D45F
:1007FC0029F41ED4DE011C969DD407C019D4DE0149
:10080C001C969CD41ED4A9D49CD4EC939DD4A8D46F
:10081C00A1D429F40DD4DE0111968CD407C008D4D0
:10082C00DE0111968BD40DD49BD48BD4EC931F5F2B
:10083C00C9CF20FE13C00CD4DE01599613D451F04D
:10084C0007D4DE011E960ED429F002D4DE011396D5
:10085C0009D419F4E1E06E2E01C066241881A29629
:10086C0008951A9310E0ABDF662049F41F5F0AD499
:10087C00153120F078D4D9DD79D401C0F5CFE1E081
:10088C00E615E1F478D411F47AD409F00BC0A898E9
:10089C007AD4BED30AD567D4A4E6C0D379D409F0F0
:1008AC00E9DD0AC0A89A79D4B3D3FFD45CD4A4E60A
:1008BC00B5D36ED409F0DEDDB8DD58D419910895A6
:1008CC005AD439F45CD411F4E1E00895E2E00895CF
:1008DC0006C055D411F4E3E00895E4E008950895BA
:1008EC002197E0E0E883F6D420E00BE019D4A0E2F5
:1008FC0071D35E2F15D4A0E25ED34E2F11D4AEE28D
:10090C0069D32E2F10E0C2D335971ED4AE17BF0774
:10091C0054F41AD4A654BD4F8BD3E451FD4FE0814F
:10092C00EC931F5FF0CF30E0A52FBB27E42FF0E056
:10093C003196DDD3E5D3AE17BF0774F4E4D3E75398
:10094C00FD4F0F01E42FF0E095D3DDD3F7D373D334
:10095C00E0817BD33F5FE8CFA42FAF5FE52FEA1B8D
:10096C003E2F3F3038F4CFD3E753FD4FA0E0A083A8
:10097C003F5FF7CFA091E702A33661F4A091E802A4
:10098C00A43741F4A091E902A13621F4A091EA0226
:10099C00A73409F014C02197E0E0E883A881A430C3
:1009AC0040F4B0E0A05DBF4FFDD3E881EF5FE8837A
:1009BC00F5CF4ED3AEEDB1E0A4D2B7D32196DDDEA8
:1009CC00772099F4DADEEE81EF5FEE835BD3AE81B4
:1009DC00A93250F03DD3ADEEB1E093D226DD7724B1
:1009EC004424E89421F801C0EBCFE1E0E71509F0CD
:1009FC0020C1DBD3AAEFB1E035D339F4A89A08D3E0
:100A0C00D7D3C6D309F036DD10C1CFD3AEEFB1E0EA
:100A1C0029D329F4C2D3BCD309F02CDD06C1C5D32C
:100A2C00A2E0B2E01FD339F4A898F2D2C4D3B0D369
:100A3C0009F020DDFAC0B9D3A7E0B2E013D329F452
:100A4C00A2D3A6D309F016DDF0C0AFD3ACE0B2E070
:100A5C0009D351F4A89AA99ADBD2AAD3DCD2A8D391
:100A6C0097D309F007DDE1C0A0D3AFE0B2E0FAD232
:100A7C0051F4A898A998CCD29ED3CDD29CD388D32C
:100A8C0009F0F8DCD2C09AD3A3E1B2E0EBD219F5AD
:100A9C0010E01430E0F4A02FBB27CAD24FD3CBD236
:100AAC001BD310F01CD328F04FD3A05DBF4FE0E355
:100ABC000BC0BED2E05DFF4F0F01A02FBB27B8D2F9
:100ACC003DD3B9D2E081D001F0D31F5FE2CFC0D2C9
:100ADC00A9E1B2E0A9C072D3A1E3B2E0C3D2C9F4D8
:100AEC0010E01B3090F4A4D26CD3F6D210F0F7D2F5
:100AFC0020F02AD32CD3E0E005C026D328D398D2FB
:100B0C0060D3E081D2D31F5FECCFA2D2A6E3B2E0D8
:100B1C008BC054D3A3E4B2E0A5D2C9F410E01B30CF
:100B2C0090F486D24ED3D8D210F0D9D220F00CD378
:100B3C0014D3E0E005C008D310D37AD242D3E081BD
:100B4C00B4D31F5FECCF84D2A8E4B2E06DC036D32F
:100B5C00A5E5B2E087D2C9F410E01B3090F468D25E
:100B6C0030D3BAD210F0BBD220F0EED2F9D2E0E002
:100B7C0005C0EAD2F5D25CD224D3E08196D31F5FB4
:100B8C00ECCF66D2AAE5B2E04FC00FD3A7E6B2E035
:100B9C0069D219F4DAD149DC4AC010D3ACE6B2E020
:100BAC0061D2E9F42D9710E01D30A0F441D2EC5045
:100BBC00FD4F92D210F093D220F03AD205D3E0E35D
:100BCC0006C036D201D334D2EC50FD4FE081EC9309
:100BDC001F5FEACFDE01C0D1A8D22D962AC0E5D284
:100BEC00A4E7B2E03FD251F4AFE2B0E0E2E05DD373
:100BFC002FD2A0E8B2E085D118DC19C0D6D2AEE86D
:100C0C00B2E030D239F4AFE2B0E0D2D221D2ABE9CB
:100C1C00B2E00AC0CAD2A9EAB2E024D211F42ADCAA
:100C2C0004C016D2AEEAB2E06CD1FFDB4424E894E7
:100C3C0021F857D327960895EFE0E7BBE0E0E8BB37
:100C4C00E3E0E4BBE0E0E5BBE2E0E1BBECE0E2BB0F
:100C5C00E0E0E3BFE2BFE9BFEBB7E06CEBBFEAE07B
:100C6C00E5BFE0ECEABFE3E0EBB9E8EDEAB9E6E8B2
:100C7C00E0BDE0E0E0BDECE0E9B97894F6D1AFE49A
:100C8C00A7D222F0F2D1ABE4A3D29AF4E1E8F1E0DE
:100C9C004AD2E6E8F1E047D2A8EEB3E0D9D2E5D1EA
:100CAC00AFE496D222F0E1D1ABE492D20AF4BDDBF0
:100CBC00E5CFEDE8F1E037D28ED2E6E8F1E033D2C1
:100CCC008AD2E9E9F1E02FD286D2EDEAF1E02BD21B
:100CDC0082D2E9EBF1E027D27ED2AEE2B0E03AD29A
:100CEC0079F4A0E3B0E05ED2A1E3B0E05BD2A2E382
:100CFC00B0E058D2A3E3B0E055D2AEE2B0E05BD2A4
:100D0C003AD211F4A89A01C0A89839D211F4A99A30
:100D1C0001C0A9988ADB442009F0C6DBFCCFFFCFC9
:100D2C005CD21A935DD2ED91A983BA831E2FE03069
:100D3C0019F0A12F5FDBF6CFAAE05CDB26C14DD208
:100D4C00AA8158DBA881B981ED91FD913196FE9372
:100D5C00EE931CC142D22497BDD210E0AA85BB856C
:100D6C00E0E0F0E0ED93FC93E889F9893196E88BAB
:100D7C00F98B39D209F4A1C0E12FE03031F43532CE
:100D8C0011F411E001C034D297C0E13081F4353256
:100D9C0011F42ED290C012E020E000E03B3211F4AE
:100DAC002BE28AC0303211F420E286C002C0E2305D
:100DBC0031F4303319F4006115E07EC003C0E53026
:100DCC0009F07AC0E32FE33639F419D21BD217D2CB
:100DDC00A481AA931BD26FC0E33769F41DD21ED233
:100DEC00AE81BF81ED91AE83BF833E2FE03011F019
:100DFC00FFD1F6CF60C0E03761F40ED20FD2EE8196
:100E0C00FF813196EE83FF83EED111F0F1D1F7CF54
:100E1C0052C0E43611F0E93611F4016002C0E53736
:100E2C0019F4E6E2F0E009C0E83511F4026003C001
:100E3C00E83709F040C0E0E3F0E0EE83FF8300FF09
:100E4C000DC0EAD1F2D1552322F4FA010FD2AF0131
:100E5C002DE2203011F02A93D9D102C0DDD1E5D199
:100E6C0030E3EE81FF810AD2E887F987EE81FF81BA
:100E7C003296EE83FF83E885F9854E175F0730F0D5
:100E8C003F5FA885B9854A1B5B0BF5CF04FD06C0F7
:100E9C00313320F4A885B985119749F400613A33B0
:100EAC0028F001FF02C0395F01C0395DA1D1A885CE
:100EBC00B9851297A8F610E057CFAA85BB85DAD171
:100ECC0010D262960895FF92F82E269707D2DE0173
:100EDC001496C8D18D01E0E0EC83ED83EE83EF83B3
:100EEC00DE011896BFD1C6D111D11A930A93E5EA47
:100EFC00F6E00CD1DE0118962DDFF7D12896FF9085
:100F0C0008956BD11A93ECECF1E00DD1A2E272DAF8
:100F1C0010E01B3058F48FD1AF3218F08CD1AA33BB
:100F2C0008F002C088D166DA1F5FF3CFA2E262DA62
:100F3C00E5EDF1E0F8D0A6D053D1F2DEAAE06ED008
:100F4C00AAE158DA188125960895E7EDF1E0EBD087
:100F5C00E3EEF1E0E8D0089540D11A93E7EDF1E02B
:100F6C00E2D0EFEEF1E0DFD010E01D3058F46AD1A2
:100F7C00AF3218F067D1AA3308F002C063D13ADA65
:100F8C001F5FF3CFEAEEF1E0CED0188123960895DF
:100F9C0024D1E991F991A991B9916D91719167174A
:100FAC0021F46623D1F7EE270895671BE1F3E1E006
:100FBC0008F4E2500895AA936991A991B991EE278A
:100FCC00FF277D91671729F031967723D1F7EFEF43
:100FDC00FFEF0895AA936991A991B991EFEFFFEFF3
:100FEC00882799277D91671709F4FC0101967723CF
:100FFC00C9F708950A921A92FA926A937A938A938D
:10100C009A93AA93BA93EA93FA93EFB7EA93089553
:10101C00ACE2B0E00895ADE2B0E00895B0E018C1E4
:10102C00EA93FA93EFB7EA930895E55BFC4F0895C2
:10103C00E12FF0E00895E951FD4F0895E452FD4F82
:10104C0008950F01A12FB0E00895D001EC930895FD
:10105C00ECEDF2E0FA93EA930895E8EDF2E0FA93FE
:10106C00EA93089595DFE0300895EBE4F3E0FA930A
:10107C00EA9308953196DF010895EA0FFB1FD5DF3F
:10108C00E0810895A2E3CACFA2E295CFE22FF0E06F
:10109C000895E02FF0E00895A1E2B0E0FAD0AE2F71
:1010AC00E091DC02EA170895A3E2B0E0F2D0AE2F93
:1010BC00E091DE02EA170895A5E2B0E0EAD0AE2F87
:1010CC00E091E002EA170895A7E2B0E0E2D0AE2F7B
:1010DC00E091E202EA170895A081A0330895A0815F
:1010EC00AA330895A02FB0E0AF5DBF4F0895CAD0CA
:1010FC00EA1BFB0B0895A02FB0E0AE17BF070895B5
:10110C00A32FB0E00895E32FF0E00895FA93EA934B
:10111C00089580E0D8DE22960895AF5DBF4F089504
:10112C00E7EEF2E0F3CFF2DFF4CF7FD94424E8947A
:10113C0021F80895AE0FBF1FE0E00895EA0FFB1FE2
:10114C000895A7D0D0010895A12FB0E00895A05024
:10115C00B04008959ED0EF3F0895A55FBF4F08950E
:10116C00AA5EBF4F0895EFE9F0E0DDCFE89420F8D8
:10117C006624442408954CDF8CD0E13008954BDF75
:10118C0088D0E1300895A99846DFE0E08ED008952C
:10119C00AFE2B0E07ED0E1300895A99A3CDFE1E007
:1011AC0084D00895E0E381D00895EAEBF2E0AECF6D
:1011BC00E1E07BD00895E0E078D00895E9ECF2E02E
:1011CC00A5CFEF50FD4F0895DE01AE0FBF1F089560
:1011DC00F2DEFF230895A8EC21CFBA93AA930895C9
:1011EC00A981BA8108953197E4913E2FE03008959A
:1011FC003A93AB85BC85ED85FE8509950895EE8502
:10120C00FF8508953497EE87FF870895AB85BC85DD
:10121C00ED85FE8509950895F2DFF4CFAE85BF8587
:10122C00149628D0EE83FF830895AE85BF8514965F
:10123C004D915C910895AB81BC81EE27A10FBE1F2F
:10124C00AC910895CDDFEE27A10FBE1FAC91089590
:10125C00109639F08AEF90E00197F1F7A895119765
:10126C00C9F708950024AF0DB01D0895F195E195CF
:10127C00F0400895ED91FC91119708950590F4912B
:10128C00E02D08951B2EBF2FF12D1A2EAE2FE12D20
:10129C000895E199FECFFF93FFB7F894AEBBBFBBA7
:1012AC00E09AEDB3FFBFFF910895E19B02C0A895B2
:1012BC00FCCF9FB7F894AEBBBFBBE09A8DB3E817D9
:1012CC0019F0EDBBE29AE19A9FBF089500240E1627
:1012DC000F0608955A934A933A932A931A930A93B2
:1012EC0008955D814C813B812A8119810881089583
:00000001FF
